{
  "contractName": "multiSigWallet",
  "abi": [
    {
      "inputs": [
        {
          "internalType": "address[]",
          "name": "_owners",
          "type": "address[]"
        },
        {
          "internalType": "uint256",
          "name": "_numOfConfirmationsRequired",
          "type": "uint256"
        }
      ],
      "stateMutability": "nonpayable",
      "type": "constructor"
    },
    {
      "anonymous": false,
      "inputs": [
        {
          "indexed": true,
          "internalType": "address",
          "name": "owner",
          "type": "address"
        },
        {
          "indexed": true,
          "internalType": "uint256",
          "name": "txIndex",
          "type": "uint256"
        }
      ],
      "name": "ConfirmTransaction",
      "type": "event"
    },
    {
      "anonymous": false,
      "inputs": [
        {
          "indexed": true,
          "internalType": "address",
          "name": "sender",
          "type": "address"
        },
        {
          "indexed": false,
          "internalType": "uint256",
          "name": "amount",
          "type": "uint256"
        },
        {
          "indexed": false,
          "internalType": "uint256",
          "name": "balance",
          "type": "uint256"
        }
      ],
      "name": "Deposit",
      "type": "event"
    },
    {
      "anonymous": false,
      "inputs": [
        {
          "indexed": true,
          "internalType": "address",
          "name": "owner",
          "type": "address"
        },
        {
          "indexed": true,
          "internalType": "uint256",
          "name": "txIndex",
          "type": "uint256"
        }
      ],
      "name": "ExecuteTransaction",
      "type": "event"
    },
    {
      "anonymous": false,
      "inputs": [
        {
          "indexed": true,
          "internalType": "address",
          "name": "owner",
          "type": "address"
        },
        {
          "indexed": true,
          "internalType": "uint256",
          "name": "txIndex",
          "type": "uint256"
        }
      ],
      "name": "RevokeConfirmation",
      "type": "event"
    },
    {
      "anonymous": false,
      "inputs": [
        {
          "indexed": true,
          "internalType": "address",
          "name": "owner",
          "type": "address"
        },
        {
          "indexed": true,
          "internalType": "uint256",
          "name": "txIndex",
          "type": "uint256"
        },
        {
          "indexed": true,
          "internalType": "address",
          "name": "to",
          "type": "address"
        },
        {
          "indexed": false,
          "internalType": "uint256",
          "name": "value",
          "type": "uint256"
        },
        {
          "indexed": false,
          "internalType": "bytes",
          "name": "data",
          "type": "bytes"
        }
      ],
      "name": "SubmitTransaction",
      "type": "event"
    },
    {
      "inputs": [
        {
          "internalType": "uint256",
          "name": "",
          "type": "uint256"
        },
        {
          "internalType": "address",
          "name": "",
          "type": "address"
        }
      ],
      "name": "isConfirmed",
      "outputs": [
        {
          "internalType": "bool",
          "name": "",
          "type": "bool"
        }
      ],
      "stateMutability": "view",
      "type": "function",
      "constant": true
    },
    {
      "inputs": [
        {
          "internalType": "address",
          "name": "",
          "type": "address"
        }
      ],
      "name": "isOwner",
      "outputs": [
        {
          "internalType": "bool",
          "name": "",
          "type": "bool"
        }
      ],
      "stateMutability": "view",
      "type": "function",
      "constant": true
    },
    {
      "inputs": [],
      "name": "numOfConfirmationsRequired",
      "outputs": [
        {
          "internalType": "uint256",
          "name": "",
          "type": "uint256"
        }
      ],
      "stateMutability": "view",
      "type": "function",
      "constant": true
    },
    {
      "inputs": [
        {
          "internalType": "uint256",
          "name": "",
          "type": "uint256"
        }
      ],
      "name": "owners",
      "outputs": [
        {
          "internalType": "address",
          "name": "",
          "type": "address"
        }
      ],
      "stateMutability": "view",
      "type": "function",
      "constant": true
    },
    {
      "inputs": [
        {
          "internalType": "uint256",
          "name": "",
          "type": "uint256"
        }
      ],
      "name": "transactions",
      "outputs": [
        {
          "internalType": "address",
          "name": "to",
          "type": "address"
        },
        {
          "internalType": "uint256",
          "name": "value",
          "type": "uint256"
        },
        {
          "internalType": "bytes",
          "name": "data",
          "type": "bytes"
        },
        {
          "internalType": "bool",
          "name": "executed",
          "type": "bool"
        },
        {
          "internalType": "uint256",
          "name": "numConfirmations",
          "type": "uint256"
        }
      ],
      "stateMutability": "view",
      "type": "function",
      "constant": true
    },
    {
      "stateMutability": "payable",
      "type": "receive",
      "payable": true
    },
    {
      "inputs": [],
      "name": "deposit",
      "outputs": [],
      "stateMutability": "payable",
      "type": "function",
      "payable": true
    },
    {
      "inputs": [
        {
          "internalType": "address",
          "name": "_to",
          "type": "address"
        },
        {
          "internalType": "uint256",
          "name": "_value",
          "type": "uint256"
        },
        {
          "internalType": "bytes",
          "name": "_data",
          "type": "bytes"
        }
      ],
      "name": "submitTransaction",
      "outputs": [],
      "stateMutability": "nonpayable",
      "type": "function"
    },
    {
      "inputs": [
        {
          "internalType": "uint256",
          "name": "_txIndex",
          "type": "uint256"
        }
      ],
      "name": "confirmTransaction",
      "outputs": [],
      "stateMutability": "nonpayable",
      "type": "function"
    },
    {
      "inputs": [
        {
          "internalType": "uint256",
          "name": "_txIndex",
          "type": "uint256"
        }
      ],
      "name": "executeTransaction",
      "outputs": [],
      "stateMutability": "nonpayable",
      "type": "function"
    },
    {
      "inputs": [
        {
          "internalType": "uint256",
          "name": "_txIndex",
          "type": "uint256"
        }
      ],
      "name": "revokeConfirmation",
      "outputs": [],
      "stateMutability": "nonpayable",
      "type": "function"
    },
    {
      "inputs": [
        {
          "internalType": "uint256",
          "name": "_txIndex",
          "type": "uint256"
        }
      ],
      "name": "getTransaction",
      "outputs": [
        {
          "internalType": "address",
          "name": "to",
          "type": "address"
        },
        {
          "internalType": "uint256",
          "name": "value",
          "type": "uint256"
        },
        {
          "internalType": "bytes",
          "name": "data",
          "type": "bytes"
        },
        {
          "internalType": "bool",
          "name": "executed",
          "type": "bool"
        },
        {
          "internalType": "uint256",
          "name": "numConfirmations",
          "type": "uint256"
        }
      ],
      "stateMutability": "view",
      "type": "function",
      "constant": true
    }
  ],
  "bytecode": "0x60806040523480156200001157600080fd5b5060405162002336380380620023368339818101604052810190620000379190620003d9565b60008251116200007e576040517f08c379a0000000000000000000000000000000000000000000000000000000008152600401620000759062000561565b60405180910390fd5b60008111801562000090575081518111155b620000d2576040517f08c379a0000000000000000000000000000000000000000000000000000000008152600401620000c990620005c7565b60405180910390fd5b60005b8251811015620002f95760008382815181106200011b577f4e487b7100000000000000000000000000000000000000000000000000000000600052603260045260246000fd5b60200260200101519050600073ffffffffffffffffffffffffffffffffffffffff168173ffffffffffffffffffffffffffffffffffffffff16141562000198576040517f08c379a00000000000000000000000000000000000000000000000000000000081526004016200018f90620005a5565b60405180910390fd5b600160008273ffffffffffffffffffffffffffffffffffffffff1673ffffffffffffffffffffffffffffffffffffffff16815260200190815260200160002060009054906101000a900460ff161562000228576040517f08c379a00000000000000000000000000000000000000000000000000000000081526004016200021f9062000583565b60405180910390fd5b60018060008373ffffffffffffffffffffffffffffffffffffffff1673ffffffffffffffffffffffffffffffffffffffff16815260200190815260200160002060006101000a81548160ff0219169083151502179055506000819080600181540180825580915050600190039060005260206000200160009091909190916101000a81548173ffffffffffffffffffffffffffffffffffffffff021916908373ffffffffffffffffffffffffffffffffffffffff160217905550508080620002f0906200069b565b915050620000d5565b508060028190555050506200077b565b6000620003206200031a846200061d565b620005e9565b905080838252602082019050828560208602820111156200034057600080fd5b60005b858110156200037457816200035988826200037e565b84526020840193506020830192505060018101905062000343565b5050509392505050565b6000815190506200038f8162000747565b92915050565b600082601f830112620003a757600080fd5b8151620003b984826020860162000309565b91505092915050565b600081519050620003d38162000761565b92915050565b60008060408385031215620003ed57600080fd5b600083015167ffffffffffffffff8111156200040857600080fd5b620004168582860162000395565b92505060206200042985828601620003c2565b9150509250929050565b600062000442600f836200064c565b91507f6f776e65727320726571756972656400000000000000000000000000000000006000830152602082019050919050565b6000620004846011836200064c565b91507f6f776e6572206e6f7420756e69717565210000000000000000000000000000006000830152602082019050919050565b6000620004c6600e836200064c565b91507f696e76616c6964206f776e65722e0000000000000000000000000000000000006000830152602082019050919050565b6000620005086028836200064c565b91507f696e76616c6964206e756d626572206f6620726571756972656420636f6e666960008301527f726d6174696f6e730000000000000000000000000000000000000000000000006020830152604082019050919050565b600060208201905081810360008301526200057c8162000433565b9050919050565b600060208201905081810360008301526200059e8162000475565b9050919050565b60006020820190508181036000830152620005c081620004b7565b9050919050565b60006020820190508181036000830152620005e281620004f9565b9050919050565b6000604051905081810181811067ffffffffffffffff8211171562000613576200061262000718565b5b8060405250919050565b600067ffffffffffffffff8211156200063b576200063a62000718565b5b602082029050602081019050919050565b600082825260208201905092915050565b60006200066a8262000671565b9050919050565b600073ffffffffffffffffffffffffffffffffffffffff82169050919050565b6000819050919050565b6000620006a88262000691565b91507fffffffffffffffffffffffffffffffffffffffffffffffffffffffffffffffff821415620006de57620006dd620006e9565b5b600182019050919050565b7f4e487b7100000000000000000000000000000000000000000000000000000000600052601160045260246000fd5b7f4e487b7100000000000000000000000000000000000000000000000000000000600052604160045260246000fd5b62000752816200065d565b81146200075e57600080fd5b50565b6200076c8162000691565b81146200077857600080fd5b50565b611bab806200078b6000396000f3fe6080604052600436106100a05760003560e01c806380f59a651161006457806380f59a651461020b5780639ace38c214610248578063c01a8c8414610289578063c6427474146102b2578063d0e30db0146102db578063ee22610b146102e5576100f7565b8063025e7c27146100fc5780630fe07bb91461013957806320ea8d86146101645780632f54bf6e1461018d57806333ea3dc8146101ca576100f7565b366100f7573373ffffffffffffffffffffffffffffffffffffffff167f90890809c654f11d6e72a28fa60149770a0d11ec6c92319d6ceb2bb0a4ea1a1534476040516100ed92919061188c565b60405180910390a2005b600080fd5b34801561010857600080fd5b50610123600480360381019061011e919061138a565b61030e565b60405161013091906116d1565b60405180910390f35b34801561014557600080fd5b5061014e61034d565b60405161015b9190611841565b60405180910390f35b34801561017057600080fd5b5061018b6004803603810190610186919061138a565b610353565b005b34801561019957600080fd5b506101b460048036038101906101af91906112fa565b610679565b6040516101c19190611746565b60405180910390f35b3480156101d657600080fd5b506101f160048036038101906101ec919061138a565b610699565b6040516102029594939291906116ec565b60405180910390f35b34801561021757600080fd5b50610232600480360381019061022d91906113b3565b6107d2565b60405161023f9190611746565b60405180910390f35b34801561025457600080fd5b5061026f600480360381019061026a919061138a565b610801565b6040516102809594939291906116ec565b60405180910390f35b34801561029557600080fd5b506102b060048036038101906102ab919061138a565b6108fc565b005b3480156102be57600080fd5b506102d960048036038101906102d49190611323565b610c25565b005b6102e3610e2f565b005b3480156102f157600080fd5b5061030c6004803603810190610307919061138a565b610e81565b005b6000818154811061031e57600080fd5b906000526020600020016000915054906101000a900473ffffffffffffffffffffffffffffffffffffffff1681565b60025481565b600160003373ffffffffffffffffffffffffffffffffffffffff1673ffffffffffffffffffffffffffffffffffffffff16815260200190815260200160002060009054906101000a900460ff166103df576040517f08c379a00000000000000000000000000000000000000000000000000000000081526004016103d690611821565b60405180910390fd5b806003805490508110610427576040517f08c379a000000000000000000000000000000000000000000000000000000000815260040161041e906117a1565b60405180910390fd5b8160038181548110610462577f4e487b7100000000000000000000000000000000000000000000000000000000600052603260045260246000fd5b906000526020600020906005020160030160009054906101000a900460ff16156104c1576040517f08c379a00000000000000000000000000000000000000000000000000000000081526004016104b8906117c1565b60405180910390fd5b6000600384815481106104fd577f4e487b7100000000000000000000000000000000000000000000000000000000600052603260045260246000fd5b906000526020600020906005020190506004600085815260200190815260200160002060003373ffffffffffffffffffffffffffffffffffffffff1673ffffffffffffffffffffffffffffffffffffffff16815260200190815260200160002060009054906101000a900460ff166105aa576040517f08c379a00000000000000000000000000000000000000000000000000000000081526004016105a1906117e1565b60405180910390fd5b60018160040160008282546105bf91906119b9565b9250508190555060006004600086815260200190815260200160002060003373ffffffffffffffffffffffffffffffffffffffff1673ffffffffffffffffffffffffffffffffffffffff16815260200190815260200160002060006101000a81548160ff021916908315150217905550833373ffffffffffffffffffffffffffffffffffffffff167ff0dca620e2e81f7841d07bcc105e1704fb01475b278a9d4c236e1c62945edd5560405160405180910390a350505050565b60016020528060005260406000206000915054906101000a900460ff1681565b60008060606000806000600387815481106106dd577f4e487b7100000000000000000000000000000000000000000000000000000000600052603260045260246000fd5b906000526020600020906005020190508060000160009054906101000a900473ffffffffffffffffffffffffffffffffffffffff168160010154826002018360030160009054906101000a900460ff16846004015482805461073e90611a77565b80601f016020809104026020016040519081016040528092919081815260200182805461076a90611a77565b80156107b75780601f1061078c576101008083540402835291602001916107b7565b820191906000526020600020905b81548152906001019060200180831161079a57829003601f168201915b50505050509250955095509550955095505091939590929450565b60046020528160005260406000206020528060005260406000206000915091509054906101000a900460ff1681565b6003818154811061081157600080fd5b90600052602060002090600502016000915090508060000160009054906101000a900473ffffffffffffffffffffffffffffffffffffffff169080600101549080600201805461086090611a77565b80601f016020809104026020016040519081016040528092919081815260200182805461088c90611a77565b80156108d95780601f106108ae576101008083540402835291602001916108d9565b820191906000526020600020905b8154815290600101906020018083116108bc57829003601f168201915b5050505050908060030160009054906101000a900460ff16908060040154905085565b600160003373ffffffffffffffffffffffffffffffffffffffff1673ffffffffffffffffffffffffffffffffffffffff16815260200190815260200160002060009054906101000a900460ff16610988576040517f08c379a000000000000000000000000000000000000000000000000000000000815260040161097f90611821565b60405180910390fd5b8060038054905081106109d0576040517f08c379a00000000000000000000000000000000000000000000000000000000081526004016109c7906117a1565b60405180910390fd5b8160038181548110610a0b577f4e487b7100000000000000000000000000000000000000000000000000000000600052603260045260246000fd5b906000526020600020906005020160030160009054906101000a900460ff1615610a6a576040517f08c379a0000000000000000000000000000000000000000000000000000000008152600401610a61906117c1565b60405180910390fd5b826004600082815260200190815260200160002060003373ffffffffffffffffffffffffffffffffffffffff1673ffffffffffffffffffffffffffffffffffffffff16815260200190815260200160002060009054906101000a900460ff1615610b09576040517f08c379a0000000000000000000000000000000000000000000000000000000008152600401610b0090611781565b60405180910390fd5b600060038581548110610b45577f4e487b7100000000000000000000000000000000000000000000000000000000600052603260045260246000fd5b906000526020600020906005020190506001816004016000828254610b6a9190611963565b9250508190555060016004600087815260200190815260200160002060003373ffffffffffffffffffffffffffffffffffffffff1673ffffffffffffffffffffffffffffffffffffffff16815260200190815260200160002060006101000a81548160ff021916908315150217905550843373ffffffffffffffffffffffffffffffffffffffff167f5cbe105e36805f7820e291f799d5794ff948af2a5f664e580382defb6339004160405160405180910390a35050505050565b600160003373ffffffffffffffffffffffffffffffffffffffff1673ffffffffffffffffffffffffffffffffffffffff16815260200190815260200160002060009054906101000a900460ff16610cb1576040517f08c379a0000000000000000000000000000000000000000000000000000000008152600401610ca890611821565b60405180910390fd5b6000600380549050905060036040518060a001604052808673ffffffffffffffffffffffffffffffffffffffff1681526020018581526020018481526020016000151581526020016000815250908060018154018082558091505060019003906000526020600020906005020160009091909190915060008201518160000160006101000a81548173ffffffffffffffffffffffffffffffffffffffff021916908373ffffffffffffffffffffffffffffffffffffffff160217905550602082015181600101556040820151816002019080519060200190610d949291906111c5565b5060608201518160030160006101000a81548160ff0219169083151502179055506080820151816004015550508373ffffffffffffffffffffffffffffffffffffffff16813373ffffffffffffffffffffffffffffffffffffffff167fd5a05bf70715ad82a09a756320284a1b54c9ff74cd0f8cce6219e79b563fe59d8686604051610e2192919061185c565b60405180910390a450505050565b3373ffffffffffffffffffffffffffffffffffffffff167f90890809c654f11d6e72a28fa60149770a0d11ec6c92319d6ceb2bb0a4ea1a153447604051610e7792919061188c565b60405180910390a2565b600160003373ffffffffffffffffffffffffffffffffffffffff1673ffffffffffffffffffffffffffffffffffffffff16815260200190815260200160002060009054906101000a900460ff16610f0d576040517f08c379a0000000000000000000000000000000000000000000000000000000008152600401610f0490611821565b60405180910390fd5b806003805490508110610f55576040517f08c379a0000000000000000000000000000000000000000000000000000000008152600401610f4c906117a1565b60405180910390fd5b8160038181548110610f90577f4e487b7100000000000000000000000000000000000000000000000000000000600052603260045260246000fd5b906000526020600020906005020160030160009054906101000a900460ff1615610fef576040517f08c379a0000000000000000000000000000000000000000000000000000000008152600401610fe6906117c1565b60405180910390fd5b60006003848154811061102b577f4e487b7100000000000000000000000000000000000000000000000000000000600052603260045260246000fd5b9060005260206000209060050201905060025481600401541015611084576040517f08c379a000000000000000000000000000000000000000000000000000000000815260040161107b90611801565b60405180910390fd5b60018160030160006101000a81548160ff02191690831515021790555060008160000160009054906101000a900473ffffffffffffffffffffffffffffffffffffffff1673ffffffffffffffffffffffffffffffffffffffff168260010154836002016040516110f491906116ba565b60006040518083038185875af1925050503d8060008114611131576040519150601f19603f3d011682016040523d82523d6000602084013e611136565b606091505b505090508061117a576040517f08c379a000000000000000000000000000000000000000000000000000000000815260040161117190611761565b60405180910390fd5b843373ffffffffffffffffffffffffffffffffffffffff167f5445f318f4f5fcfb66592e68e0cc5822aa15664039bd5f0ffde24c5a8142b1ac60405160405180910390a35050505050565b8280546111d190611a77565b90600052602060002090601f0160209004810192826111f3576000855561123a565b82601f1061120c57805160ff191683800117855561123a565b8280016001018555821561123a579182015b8281111561123957825182559160200191906001019061121e565b5b509050611247919061124b565b5090565b5b8082111561126457600081600090555060010161124c565b5090565b600061127b611276846118e6565b6118b5565b90508281526020810184848401111561129357600080fd5b61129e848285611a35565b509392505050565b6000813590506112b581611b47565b92915050565b600082601f8301126112cc57600080fd5b81356112dc848260208601611268565b91505092915050565b6000813590506112f481611b5e565b92915050565b60006020828403121561130c57600080fd5b600061131a848285016112a6565b91505092915050565b60008060006060848603121561133857600080fd5b6000611346868287016112a6565b9350506020611357868287016112e5565b925050604084013567ffffffffffffffff81111561137457600080fd5b611380868287016112bb565b9150509250925092565b60006020828403121561139c57600080fd5b60006113aa848285016112e5565b91505092915050565b600080604083850312156113c657600080fd5b60006113d4858286016112e5565b92505060206113e5858286016112a6565b9150509250929050565b6113f8816119ed565b82525050565b611407816119ff565b82525050565b60006114188261192b565b6114228185611936565b9350611432818560208601611a44565b61143b81611b36565b840191505092915050565b6000815461145381611a77565b61145d8186611947565b945060018216600081146114785760018114611489576114bc565b60ff198316865281860193506114bc565b61149285611916565b60005b838110156114b457815481890152600182019150602081019050611495565b838801955050505b50505092915050565b60006114d2600983611952565b91507f7478206661696c656400000000000000000000000000000000000000000000006000830152602082019050919050565b6000611512601483611952565b91507f747820616c726561647920636f6e6669726d65640000000000000000000000006000830152602082019050919050565b6000611552601883611952565b91507f7472616e73616374696f6e20646f65736e7420657869737400000000000000006000830152602082019050919050565b6000611592601383611952565b91507f747820616c7265616479206578656375746564000000000000000000000000006000830152602082019050919050565b60006115d2601083611952565b91507f7478206e6f7420636f6e6669726d6564000000000000000000000000000000006000830152602082019050919050565b6000611612602983611952565b91507f63616e6e6f7420657865637574652c206e6f7420656e6f75676820636f6e666960008301527f726d6174696f6e732e00000000000000000000000000000000000000000000006020830152604082019050919050565b6000611678600983611952565b91507f6e6f74206f776e657200000000000000000000000000000000000000000000006000830152602082019050919050565b6116b481611a2b565b82525050565b60006116c68284611446565b915081905092915050565b60006020820190506116e660008301846113ef565b92915050565b600060a08201905061170160008301886113ef565b61170e60208301876116ab565b8181036040830152611720818661140d565b905061172f60608301856113fe565b61173c60808301846116ab565b9695505050505050565b600060208201905061175b60008301846113fe565b92915050565b6000602082019050818103600083015261177a816114c5565b9050919050565b6000602082019050818103600083015261179a81611505565b9050919050565b600060208201905081810360008301526117ba81611545565b9050919050565b600060208201905081810360008301526117da81611585565b9050919050565b600060208201905081810360008301526117fa816115c5565b9050919050565b6000602082019050818103600083015261181a81611605565b9050919050565b6000602082019050818103600083015261183a8161166b565b9050919050565b600060208201905061185660008301846116ab565b92915050565b600060408201905061187160008301856116ab565b8181036020830152611883818461140d565b90509392505050565b60006040820190506118a160008301856116ab565b6118ae60208301846116ab565b9392505050565b6000604051905081810181811067ffffffffffffffff821117156118dc576118db611b07565b5b8060405250919050565b600067ffffffffffffffff82111561190157611900611b07565b5b601f19601f8301169050602081019050919050565b60008190508160005260206000209050919050565b600081519050919050565b600082825260208201905092915050565b600081905092915050565b600082825260208201905092915050565b600061196e82611a2b565b915061197983611a2b565b9250827fffffffffffffffffffffffffffffffffffffffffffffffffffffffffffffffff038211156119ae576119ad611aa9565b5b828201905092915050565b60006119c482611a2b565b91506119cf83611a2b565b9250828210156119e2576119e1611aa9565b5b828203905092915050565b60006119f882611a0b565b9050919050565b60008115159050919050565b600073ffffffffffffffffffffffffffffffffffffffff82169050919050565b6000819050919050565b82818337600083830152505050565b60005b83811015611a62578082015181840152602081019050611a47565b83811115611a71576000848401525b50505050565b60006002820490506001821680611a8f57607f821691505b60208210811415611aa357611aa2611ad8565b5b50919050565b7f4e487b7100000000000000000000000000000000000000000000000000000000600052601160045260246000fd5b7f4e487b7100000000000000000000000000000000000000000000000000000000600052602260045260246000fd5b7f4e487b7100000000000000000000000000000000000000000000000000000000600052604160045260246000fd5b6000601f19601f8301169050919050565b611b50816119ed565b8114611b5b57600080fd5b50565b611b6781611a2b565b8114611b7257600080fd5b5056fea26469706673582212205c99f8900b205e47a1535e39d926076ff0241e133bb6014dd6906d43eefe41c664736f6c63430008000033",
  "immutableReferences": {},
  "source": "// SPDX-License-Identifier: GPL-3.0\n\npragma solidity ^0.8.0;\n\ncontract multiSigWallet {\n    \n    // this is the transaction itself event aka how much we are sending, who is sending, and the balance\n    event Deposit(address indexed sender, uint amount, uint balance);\n    \n    // here we are going to design some info to be emiited when we call the functions\n    event SubmitTransaction(\n        address indexed owner, // the person calling the contractt\n        uint indexed txIndex, // the indexed transaction \n        address indexed to, // who the fuck we are sending the transaction to\n        uint value, // how much we are sending\n        bytes data // dunno yet\n    );\n    event ConfirmTransaction(address indexed owner, uint indexed txIndex);\n    event RevokeConfirmation(address indexed owner, uint indexed txIndex);\n    event ExecuteTransaction(address indexed owner, uint indexed txIndex);\n    \n    // store owners in the array of address aka owners of the wallet who can sign the transactions\n    address[] public owners;\n    mapping(address => bool) public isOwner; // checks if the address is an owner or not\n    uint public numOfConfirmationsRequired;\n    \n    // when a transaction is proposed by one of the multisig owners, we will create a struct of the transaction here\n    // then we are going to store the struct inside an array of transactions\n    struct Transaction {\n        address to;\n        uint value;\n        bytes data; // in the case we are calling another contract, we store the transaction data here\n        bool executed; // we need to know if the transaction executed true false\n        uint numConfirmations; // store number of approvals for the tx\n    }\n\n    Transaction[] public transactions;\n    // mapping from tx index => owner => bool\n    mapping(uint => mapping(address => bool)) public isConfirmed;\n    \n    // the contructor will have the owners of the multisig wallet and the number of confirmations \n    constructor(address[] memory _owners, uint _numOfConfirmationsRequired) {\n        require(_owners.length > 0,'owners required');// input validation to make sure that owner array isnt empty\n        require(\n            _numOfConfirmationsRequired > 0 && _numOfConfirmationsRequired <= _owners.length, \n            'invalid number of required confirmations'\n        );\n        \n        // we need to copy the owners from the owners array into the state variables\n        for (uint i = 0; i < _owners.length; i++){\n            address owner = _owners[i];\n            require(owner != address(0),'invalid owner.');  // make sure owner is not equal to the zero address\n            // we need to check that there are not any duplicate owners for line 24\n            require(!isOwner[owner], 'owner not unique!'); // basically the mapping on line 24 returns a true or false.. \n            // here we are saying IF NOT TRUE AKA if not OWNER, we say no SIR \n            isOwner[owner] = true;\n            owners.push(owner); // if the owner is the owner, we push the owner to the owners state variable \n        }\n        numOfConfirmationsRequired = _numOfConfirmationsRequired; \n    }\n    \n    \n    //fallback function to send money to the contract in ether\n    receive() external payable {\n        emit Deposit(msg.sender, msg.value, address(this).balance);\n    }\n    \n    // helper function to deposit into remix IDE \n    function deposit() external payable {\n        emit Deposit(msg.sender,msg.value,address(this).balance);\n    }\n    \n    \n    modifier onlyOwner() {\n        require(isOwner[msg.sender], 'not owner');\n        _;\n    }\n    \n    // how do check if a transaction exist yet aka we check if the index for the transaction exists by checking if it \n    // is less than the array length of transactions\n    // @param txIndex is the indexed transaction in the event we create called submitTransaction\n    modifier txExists(uint _txIndex){\n        require(_txIndex < transactions.length, 'transaction doesnt exist');\n        _;\n    }\n    \n    // get transaction at the index and make sure executed field is false \n    // @param txIndex is the indexed transaction in the event we create called submitTransaction\n    modifier notExecuted(uint _txIndex) {\n        require(!transactions[_txIndex].executed, 'tx already executed');\n        _;\n    }\n    \n    // make sure transaction is already not confirmed by all owners \n    // @param   txIndex is the indexed transaction in the even we create called submitTransaction\n    modifier notConfirmed(uint _txIndex) {\n        require(!isConfirmed[_txIndex][msg.sender], \"tx already confirmed\");\n        _;\n    }\n    \n    \n        // // who is the transaction going to, whats the value, and what data is there to required to call another contract from \n    // function submitTransaction(address to, uint value, bytes memory data) public onlyOwner {\n    //     // we need the id of the transaction we are about to create \n    //     uint txIndex = transactions.length; // first trans will have 0, second will be \n    //     //push the transaction to the tranctions array by using the struct \n    //     // array name pushes struct \n    //     transactions.push(\n    //         Transaction({\n    //             to: _to,\n    //             value: _value,\n    //             data: _data,\n    //             executed: false,\n    //             numConfirmations: 0\n    //         })\n    //     );\n        \n    //     emit submitTransaction(msg.sender, txIndex, _to, _value, _data);\n    // }\n    \n    \n    // when you deploy the contract, you need to enter 3 owner addresses and a # of confirmations required\n    // [\"0x5B38Da6a701c568545dCfcB03FcB875f56beddC4\",\"0xAb8483F64d9C6d1EcF9b849Ae677dD3315835cb2\",\"0xCA35b7d915458EF540aDe6068dFe2F44E8fa733c\"],2\n    // we need to deposit ether\n    // for demo purposes - address, ether, data\n    // 0x03C6FcED478cBbC9a4FAB34eF9f40767739D1Ff7, 1000000000000000000, 0x0\n    \n    function submitTransaction(\n        address _to,\n        uint _value,\n        bytes memory _data\n    ) public onlyOwner {\n        uint txIndex = transactions.length;\n\n        transactions.push(\n            Transaction({\n                to: _to,\n                value: _value,\n                data: _data,\n                executed: false,\n                numConfirmations: 0\n            })\n        );\n\n        emit SubmitTransaction(msg.sender, txIndex, _to, _value, _data);\n    }\n\n    // we only want owner to call this function\n    // if trans exist, then it should not be executed yet\n    function confirmTransaction(uint _txIndex)\n        public\n        onlyOwner\n        txExists(_txIndex)\n        notExecuted(_txIndex)\n        notConfirmed(_txIndex)\n    {\n        Transaction storage transaction = transactions[_txIndex];\n        transaction.numConfirmations += 1;\n        isConfirmed[_txIndex][msg.sender] = true;\n\n        emit ConfirmTransaction(msg.sender, _txIndex);\n    }\n    \n    // @params txIndex will need to be passed \n    // @modifiers onlyOwner, txExists, and notExecuted are called\n    function executeTransaction(uint _txIndex) public \n        onlyOwner\n        txExists(_txIndex)\n        notExecuted(_txIndex)\n    {\n        Transaction storage transaction = transactions[_txIndex]; // get transaction at index and struct\n        // make sure we have enough owner confirmations \n        require(\n            transaction.numConfirmations >= numOfConfirmationsRequired, \"cannot execute, not enough confirmations.\"\n            );\n        transaction.executed = true;\n        \n        (bool success, ) = transaction.to.call{value: transaction.value}(\n            transaction.data\n        );\n        require(success, \"tx failed\");\n        \n        // emit the transation and the owner who called it\n        emit ExecuteTransaction(msg.sender, _txIndex);\n    }\n    \n    // @param   _txIndex is passed \n    // we check if the transaction has been executed yet with modifiers\n    function revokeConfirmation(uint _txIndex) public \n        onlyOwner\n        txExists(_txIndex)\n        notExecuted(_txIndex)\n    \n    {\n        // we need to get the transaction in order to deny or revoke it\n        Transaction storage transaction = transactions[_txIndex];\n        // check if confirmation is confirmed \n        require(isConfirmed[_txIndex][msg.sender], \"tx not confirmed\");\n        \n        transaction.numConfirmations -=1;\n        isConfirmed[_txIndex][msg.sender] = false;\n        \n        // emit the transaction and the owner to called it\n        emit RevokeConfirmation(msg.sender, _txIndex);\n        \n    }\n\n    // function get transaction\n    // @param   index ID for the transaction from the array\n    function getTransaction(uint _txIndex)\n    public \n    view\n    returns (address to, uint value, bytes memory data, bool executed, uint numConfirmations ) {\n\n      // we need to get the transaction from the array and assign it \n      Transaction storage transaction = transactions[_txIndex];\n\n      return (\n        transaction.to,\n        transaction.value,\n        transaction.data,\n        transaction.executed,\n        transaction.numConfirmations\n      );\n    }\n    \n}\n    \n",
  "sourcePath": "/Users/hijaked/code/buildSpace/multiSigWalletTruffle/contracts/multiSigWallet.sol",
  "compiler": {
    "name": "solc",
    "version": "0.8.0+commit.c7dfd78e.Emscripten.clang"
  },
  "schemaVersion": "3.4.3",
  "updatedAt": "2021-10-19T18:05:17.865Z",
  "networkType": "ethereum",
  "devdoc": {
    "kind": "dev",
    "methods": {},
    "version": 1
  },
  "userdoc": {
    "kind": "user",
    "methods": {},
    "version": 1
  }
}